{
  "_format": "hh-sol-artifact-1",
  "contractName": "Proposals",
  "sourceName": "contracts/Proposal.sol",
  "abi": [
    {
      "inputs": [],
      "stateMutability": "nonpayable",
      "type": "constructor"
    },
    {
      "inputs": [
        {
          "internalType": "uint256",
          "name": "",
          "type": "uint256"
        }
      ],
      "name": "proposals",
      "outputs": [
        {
          "internalType": "string",
          "name": "name",
          "type": "string"
        },
        {
          "internalType": "uint256",
          "name": "voteCount",
          "type": "uint256"
        }
      ],
      "stateMutability": "view",
      "type": "function"
    },
    {
      "inputs": [
        {
          "internalType": "uint256",
          "name": "proposalIndex",
          "type": "uint256"
        }
      ],
      "name": "vote",
      "outputs": [],
      "stateMutability": "nonpayable",
      "type": "function"
    },
    {
      "inputs": [
        {
          "internalType": "address",
          "name": "",
          "type": "address"
        }
      ],
      "name": "voters",
      "outputs": [
        {
          "internalType": "bool",
          "name": "voted",
          "type": "bool"
        },
        {
          "internalType": "uint256",
          "name": "vote",
          "type": "uint256"
        }
      ],
      "stateMutability": "view",
      "type": "function"
    },
    {
      "inputs": [],
      "name": "winnerName",
      "outputs": [
        {
          "internalType": "string",
          "name": "winnerName_",
          "type": "string"
        }
      ],
      "stateMutability": "view",
      "type": "function"
    },
    {
      "inputs": [],
      "name": "winningProposal",
      "outputs": [
        {
          "internalType": "uint256",
          "name": "winningProposal_",
          "type": "uint256"
        }
      ],
      "stateMutability": "view",
      "type": "function"
    }
  ],
  "bytecode": "0x60806040523480156200001157600080fd5b50600160405180604001604052806040518060400160405280600a81526020017f50726f706f73616c20310000000000000000000000000000000000000000000081525081526020016000815250908060018154018082558091505060019003906000526020600020906002020160009091909190915060008201518160000190816200009f919062000460565b50602082015181600101555050600160405180604001604052806040518060400160405280600a81526020017f50726f706f73616c203200000000000000000000000000000000000000000000815250815260200160008152509080600181540180825580915050600190039060005260206000209060020201600090919091909150600082015181600001908162000139919062000460565b50602082015181600101555050600160405180604001604052806040518060400160405280600a81526020017f50726f706f73616c2033000000000000000000000000000000000000000000008152508152602001600081525090806001815401808255809150506001900390600052602060002090600202016000909190919091506000820151816000019081620001d3919062000460565b5060208201518160010155505062000547565b600081519050919050565b7f4e487b7100000000000000000000000000000000000000000000000000000000600052604160045260246000fd5b7f4e487b7100000000000000000000000000000000000000000000000000000000600052602260045260246000fd5b600060028204905060018216806200026857607f821691505b6020821081036200027e576200027d62000220565b5b50919050565b60008190508160005260206000209050919050565b60006020601f8301049050919050565b600082821b905092915050565b600060088302620002e87fffffffffffffffffffffffffffffffffffffffffffffffffffffffffffffffff82620002a9565b620002f48683620002a9565b95508019841693508086168417925050509392505050565b6000819050919050565b6000819050919050565b6000620003416200033b62000335846200030c565b62000316565b6200030c565b9050919050565b6000819050919050565b6200035d8362000320565b620003756200036c8262000348565b848454620002b6565b825550505050565b600090565b6200038c6200037d565b6200039981848462000352565b505050565b5b81811015620003c157620003b560008262000382565b6001810190506200039f565b5050565b601f8211156200041057620003da8162000284565b620003e58462000299565b81016020851015620003f5578190505b6200040d620004048562000299565b8301826200039e565b50505b505050565b600082821c905092915050565b6000620004356000198460080262000415565b1980831691505092915050565b600062000450838362000422565b9150826002028217905092915050565b6200046b82620001e6565b67ffffffffffffffff811115620004875762000486620001f1565b5b6200049382546200024f565b620004a0828285620003c5565b600060209050601f831160018114620004d85760008415620004c3578287015190505b620004cf858262000442565b8655506200053f565b601f198416620004e88662000284565b60005b828110156200051257848901518255600182019150602085019450602081019050620004eb565b868310156200053257848901516200052e601f89168262000422565b8355505b6001600288020188555050505b505050505050565b6108c580620005576000396000f3fe608060405234801561001057600080fd5b50600436106100575760003560e01c80630121b93f1461005c578063013cf08b14610078578063609ff1bd146100a9578063a3ec138d146100c7578063e2ba53f0146100f8575b600080fd5b610076600480360381019061007191906104bd565b610116565b005b610092600480360381019061008d91906104bd565b610257565b6040516100a0929190610589565b60405180910390f35b6100b1610313565b6040516100be91906105b9565b60405180910390f35b6100e160048036038101906100dc9190610632565b610395565b6040516100ef92919061067a565b60405180910390f35b6101006103c6565b60405161010d91906106a3565b60405180910390f35b60008060003373ffffffffffffffffffffffffffffffffffffffff1673ffffffffffffffffffffffffffffffffffffffff16815260200190815260200160002090508060000160009054906101000a900460ff16156101aa576040517f08c379a00000000000000000000000000000000000000000000000000000000081526004016101a190610711565b60405180910390fd5b60018054905082106101f1576040517f08c379a00000000000000000000000000000000000000000000000000000000081526004016101e89061077d565b60405180910390fd5b60018160000160006101000a81548160ff021916908315150217905550818160010181905550600180838154811061022c5761022b61079d565b5b9060005260206000209060020201600101600082825461024c91906107fb565b925050819055505050565b6001818154811061026757600080fd5b906000526020600020906002020160009150905080600001805461028a9061085e565b80601f01602080910402602001604051908101604052809291908181526020018280546102b69061085e565b80156103035780601f106102d857610100808354040283529160200191610303565b820191906000526020600020905b8154815290600101906020018083116102e657829003601f168201915b5050505050908060010154905082565b6000806000905060005b60018054905081101561039057816001828154811061033f5761033e61079d565b5b9060005260206000209060020201600101541115610383576001818154811061036b5761036a61079d565b5b90600052602060002090600202016001015491508092505b808060010191505061031d565b505090565b60006020528060005260406000206000915090508060000160009054906101000a900460ff16908060010154905082565b606060016103d2610313565b815481106103e3576103e261079d565b5b906000526020600020906002020160000180546103ff9061085e565b80601f016020809104026020016040519081016040528092919081815260200182805461042b9061085e565b80156104785780601f1061044d57610100808354040283529160200191610478565b820191906000526020600020905b81548152906001019060200180831161045b57829003601f168201915b5050505050905090565b600080fd5b6000819050919050565b61049a81610487565b81146104a557600080fd5b50565b6000813590506104b781610491565b92915050565b6000602082840312156104d3576104d2610482565b5b60006104e1848285016104a8565b91505092915050565b600081519050919050565b600082825260208201905092915050565b60005b83811015610524578082015181840152602081019050610509565b60008484015250505050565b6000601f19601f8301169050919050565b600061054c826104ea565b61055681856104f5565b9350610566818560208601610506565b61056f81610530565b840191505092915050565b61058381610487565b82525050565b600060408201905081810360008301526105a38185610541565b90506105b2602083018461057a565b9392505050565b60006020820190506105ce600083018461057a565b92915050565b600073ffffffffffffffffffffffffffffffffffffffff82169050919050565b60006105ff826105d4565b9050919050565b61060f816105f4565b811461061a57600080fd5b50565b60008135905061062c81610606565b92915050565b60006020828403121561064857610647610482565b5b60006106568482850161061d565b91505092915050565b60008115159050919050565b6106748161065f565b82525050565b600060408201905061068f600083018561066b565b61069c602083018461057a565b9392505050565b600060208201905081810360008301526106bd8184610541565b905092915050565b7f416c726561647920766f7465642e000000000000000000000000000000000000600082015250565b60006106fb600e836104f5565b9150610706826106c5565b602082019050919050565b6000602082019050818103600083015261072a816106ee565b9050919050565b7f496e76616c69642070726f706f73616c20696e6465782e000000000000000000600082015250565b60006107676017836104f5565b915061077282610731565b602082019050919050565b600060208201905081810360008301526107968161075a565b9050919050565b7f4e487b7100000000000000000000000000000000000000000000000000000000600052603260045260246000fd5b7f4e487b7100000000000000000000000000000000000000000000000000000000600052601160045260246000fd5b600061080682610487565b915061081183610487565b9250828201905080821115610829576108286107cc565b5b92915050565b7f4e487b7100000000000000000000000000000000000000000000000000000000600052602260045260246000fd5b6000600282049050600182168061087657607f821691505b6020821081036108895761088861082f565b5b5091905056fea2646970667358221220039f66adbea3e1ef16437418cded8ed3a78bb777bb39d03a103e940791fd644064736f6c63430008180033",
  "linkReferences": {},
  "deployedLinkReferences": {}
}